:1000000000308A00122E00000A108A100A1182079E
:100010000C3443346F346E34743472346F346C3453
:1000200065342034743465346D347034653472341E
:100030006134743475347234613400340A108A10B7
:100040000A1182070C34543465346D3470346534CD
:1000500072346134743475347234613420346534EC
:100060006C346534763461346434613400340A109D
:100070008A100A118207523465347334663472343C
:10008000693461346E3464346F34203473346934C9
:100090007334743465346D34613400340A108A105A
:1000A0000A11820741346734753461347234643420
:1000B0006534203475346D3420346D346F346D34D0
:1000C00065346E3474346F3400340A108A100A11A7
:1000D0008207543465346D3470346534723461345D
:1000E0007434753472346134203469346434653462
:1000F00061346C3400340A108A100A1182074534C6
:1001000073347434653469347234613420346C343B
:100110006934673461346434613400340A108A10FD
:100120000A1182074134713475346534633465349F
:100130006E3464346F3420346F3420347334693453
:100140007334743465346D34613400344730840062
:10015000831300080319BA280130F800F701F70BE0
:10016000AF28F80BAE284A30F700F70BB528B828AF
:10017000800BAC2800344E0EF039F7000F30080524
:100180007704880000000814C52808100034080807
:10019000F700080E0F39F800003483160810881095
:1001A0000811831288100F3083160805F038880074
:1001B00083120815000008140000C7207808CE003C
:1001C0000810000008140000C7207808CD000810AF
:1001D0000F3083160805880083124E0EF700F030AA
:1001E000F70577084D04F8007808CD00CD1BD3281B
:1001F0004B1C88104B1888140000081100000810D0
:100200004C0ECD000F30CD054D08CE00BB204C0864
:100210000F39CD00CE00BB2000342830BA000C309E
:10022000BB000130BC000630BD000810881008116A
:100230000F308316080588000810881008110F3049
:100240008312C700A6200130B9003908033C031C03
:1002500031290330CE00BB200530C700A620B90AE3
:1002600025290230CE00BB200530C700A620B901E9
:100270003908033C031C48293A30390784008313AA
:100280000008BE00CB013E08CC00CD20B90A3829B9
:100290008A110A12512EB90DB90DB90DF830B905F0
:1002A0003830B90539084038BD00CB013D08CC00D5
:1002B000CD20BC013C08073C031C71293B08FA0017
:1002C0003A08BA0A0319BB0A840083137A18831701
:1002D0000008BD000130CB003D08CC00CD20BC0A99
:1002E0005A298A110A12562E8E30F7003A08F80061
:1002F0003908F900FA01F808031D88297908F8007F
:10030000F9010830F702F808031D8829F701902940
:100310000310F81B8F29F90DF80DF7038829F8133E
:10032000003480308318BE06C301C4013A08C200FD
:100330003E08C20639080319812AC100F7003D08AA
:1003400003198A2AC1020319262A031CE4293E083C
:10035000C700C7173F08C6004008C500C401031006
:10036000C70CC60CC50CC40CC10BAE29C21FBB29DF
:1003700043149E2A4310411043163C3084008313DB
:10038000B32A4312C21BCE29411CD929C70CC60C63
:10039000C50CC40CF70A0319992AD929C71BDC29F3
:1003A0000310C40DC50DC60DC70DF7030319992A17
:1003B000CE294317462A43133A08C200C21FE22936
:1003C000C717922AC713922A3D08C100F7003908BF
:1003D000C1023A08C700C7173B08C6003C08C50061
:1003E000C4010310C70CC60CC50CC40CC10BF0290A
:1003F000C21FFD29C3149E2AC3104110C3164030EA
:1004000084008313B32AC312C21B102A411C1B2A67
:10041000C70CC60CC50CC40CF70A0319992A1B2A71
:10042000C71B1E2A0310C40DC50DC60DC70DF7034B
:100430000319992A102AC317462AC3133E08C2007B
:10044000C21F242AC717922AC713922A3E08C70040
:10045000C7173F08C6004008C500C21F332AC7138C
:1004600043159E2A4311C40141103C30840083137C
:10047000B32AC21B5C2A3A08C200411C462AC70C98
:10048000C60CC50CC40CF70A0319992AC41F572AB5
:10049000C50A031D572AC60A031D572AC70A031D8A
:1004A000572AC70CC60CC50CF70A0319992A431B17
:1004B000DB29C31B1D2A7B2A8030C706C71F642A7D
:1004C0009E2A3E08C200712A3A08C200C708031DCE
:1004D000712AC608031D712AC508031D712AF70178
:1004E000922AC71B7B2A0310C40DC50DC60DC70D6C
:1004F000F70B712A992AC21F7F2AC717922AC7139E
:10050000922A3D08F7003E08C7003F08C600400891
:10051000C500922A3908F7003A08C7003B08C60010
:100520003C08C5004708F8004608F9004508FA00ED
:10053000D12AF701F801F901FA01D12AC401C5094C
:10054000C609C709C409C40A031DAC2AC50A031D8C
:10055000AC2AC60A0319C70A4318BA29C318FC29CA
:100560004319322A612A0008C507031CBD2AC60A9E
:10057000031DBD2AC70A0319411484030008C607D6
:10058000031CC52AC70A0319411484030008801FED
:10059000803AC70703184114431AC129C31A032A12
:1005A000392A00341F151F19D32A1E08FA00831692
:1005B0001E088312B9001E08BA0074217A08AF0021
:1005C0007908AE007808AD007708AC002F08BC00B1
:1005D0002E08BB002D08BA002C08B900C001BF01CD
:1005E0002030BE008130BD0039080319B92BC50089
:1005F0003D080319B92BC502031C032B7F30C50727
:100600000318B92B092B8130C502031CB92B031920
:10061000B92B4508F700F801F901FA01C4013A08BD
:10062000C300C3173B08C2003C08C1001930C50015
:100630004008C10203182C2B0130C20203182C2BD6
:10064000C30203182C2BC40203182C2BC40AC30AA0
:10065000C20A4008C1075E2B3F08C2020318472B9D
:100660000130C3020318472BC4020318472BC40AE6
:10067000C30A3F08C2074008C107031C5E2BC20A19
:10068000031D5E2BC30A031D5E2BC40A5E2B3E08AE
:100690008038C30203185D2B0130C40203185D2BA0
:1006A000C40A3E088038C3073F08C207031C3B2B1F
:1006B000C30A031D3B2BC40A3B2B7A14C50B612BC9
:1006C0006C2B0310C10DC20DC30DC40D0310FA0D28
:1006D000F90DF80DC60D182B461C742B0310F80CE1
:1006E000F90CFA0CC60C772BF7030319B92BC61BB0
:1006F000A02B0310C10DC20DC30DC40D4008C102D3
:1007000003188C2B0130C20203188C2BC302031870
:100710008C2BC402031CAF2B3F08C2020318972B7B
:100720000130C3020318972BC402031CAF2B3E08F1
:100730008038C3020318A02B0130C402031CAF2B66
:10074000FA0A031DAF2BF90A031DAF2BF80A031D8C
:10075000AF2BF70A0319B92BF80CF90CFA0C3A086D
:10076000C5003E08C506C51FB72BF817BD2BF813EB
:10077000BD2BF701F801F901FA017A08AB007908FD
:10078000AA007808A9007708A80083142F08BC00E5
:100790002E08BB002D08BA002C08B900C001BF010B
:1007A0002030BE008230BD0091217A08B300790864
:1007B000B2007808B1007708B00083102F08BC00A1
:1007C0002E08BB002D08BA002C08B900C001BF01DB
:1007D0002030BE008230BD0091217A08B700790830
:1007E000B6007808B5007708B4000034480BF92B40
:1007F000FC2B4030C900FD2BC90101304702C9075D
:1008000049088038CA00CB014A08CC00CD2000340A
:100810004608073A0319162C0B3A03191B2C063A03
:100820000319232C023A0319292C2E2C0130C7005E
:10083000C800F623342CCB010130CC00CD2002308F
:10084000C700A620342C0130C7000230C800F623B0
:10085000342CCB011030CC00CD20342C0130CB0017
:100860004608CC00CD20342C0034F701F801F90102
:10087000FA01CE01CF01D001D1014D084C044B0447
:100880004A040319732C2030D2000310C60DC70D83
:10089000C80DC90DCE0DCF0DD00DD10D4D08510293
:1008A000031D5C2C4C085002031D5C2C4B084F02AE
:1008B000031D5C2C4A084E02031C6D2C4A08CE0214
:1008C0004B08031C4B0FCF024C08031C4C0FD002EB
:1008D0004D08031C4D0FD1020314F70DF80DF90D4F
:1008E000FA0DD20B452C4E308400831300340408DB
:1008F000BE003D08C0000319092D3C08C9003B0893
:10090000C8003A08C7003908C600CD01CC01203024
:10091000CB008230CA0046080319FB2CCE004A08DF
:100920000319FB2CCE0703189C2C7F30CE02031C2E
:10093000FB2C0319FB2CA02C8130CE070318FB2CB9
:100940004E08F700F801F901FA014708D200D21762
:100950004808D1004908D0001830CE00CF01501C03
:10096000C92C4D08FA07031CBB2CF90A031DBB2C2C
:10097000F80A0319CF174C08F907031CC22CF80A10
:100980000319CF174B08C800C8174808F807031801
:10099000CF17CF0DF80CF90CFA0CD20CD10CD00CEF
:1009A0000310CE0BAE2C0130F7070318FB2CF81BFD
:1009B000E02CD20DFA0DF90DF80DF7030319FB2CFD
:1009C000D21FF12CFA0A031DF12CF90A031DF12C98
:1009D000F80A031DF12CF80CF90CFA0CF70A0319AC
:1009E000FB2C4708CF004B08CF06CF1FF92CF81778
:1009F000FF2CF813FF2CF701F801F901FA017A082E
:100A0000BC007908BB007808BA007708B900C00BB1
:100A10007D2C3C08C9003B08C8003A08C7003908CB
:100A2000C6004608B63CC600FA014708CA00C71708
:100A30000310C70CC80CC90CFA0CF90CF80CF70C15
:100A4000C60B182DCA1F2F2DF709F809F909FA0945
:100A5000F70A0319F80A0319F90A0319FA0A7A08B6
:100A6000BC007908BB007808BA007708B900BC1F41
:100A7000462DBE03BE16B909BA09BB09BC09B90A9D
:100A80000319BA0A0319BB0A0319BC0A3B30C50093
:100A90009A30C400CA30C300C2010A30C0003D0809
:100AA0000319BE0A3C08C9003B08C8003A08C70041
:100AB0003908C6004508CD004408CC004308CB00E7
:100AC0004208CA0035240008B900840A0008BA00A8
:100AD000840A0008BB00840A0008BC00FD308407BB
:100AE000F708031D862D3D0A40020319862D3E0896
:100AF0000319882D0F3940020319802D0318B82DD2
:100B0000BE1BB82D3E1B882D2030B42D2030BE05D5
:100B1000BE1E962DBE123D08031DBE037708BE0003
:100B20002D30C60008243E08F700BE013D084002F3
:100B3000031DA42D7708BE002E30C60008243E08F1
:100B4000F7002030BE0500303030BE1EB42DBE127E
:100B50003D08031DBE037708BE002D30C6000824E3
:100B60003E08F700BE013030F7077708C6000824BA
:100B70004508C9004408C8004308C7004208C60029
:100B8000CD01CC01CB010A30CA0035247A08C5005A
:100B90007908C4007808C3007708C200C00B522D42
:100BA0008A110A12742E3A08C1003E08C106C11FFC
:100BB000DE2D03110310BA1B0314112E3A08C100D5
:100BC0003D08C2003908C2020319EC2DC11F112EC5
:100BD0000308013A8300112E3E08C2003A08C202FF
:100BE0000319F82DC11F112E0308013A8300112E9D
:100BF0003F08C2003B08C2020319042EC11F112E78
:100C00000308013A8300112E4008C2003C08C202CA
:100C10000319102EC11F112E0308013A8300112E53
:100C200003100034840183131F30830583161F14BF
:100C30009F141F159F1107309C008312A0011C30C8
:100C4000A1001430A2001C30A300A401A501A6013C
:100C5000A701FF30B80083161F109F141F159F15A2
:100C60001F1383121F179F1783169F1783121F14BA
:100C70000030F8001F08C73978049F00FF30831642
:100C80008500FC308600FF3087008312B8000830F2
:100C900083168800091489140915860183128601B8
:100CA0000D29B901BB012030BA004B29D222B9016C
:100CB00039080420B90AF700C600082415303902A3
:100CC000031D582E0130C7000230C800F6238930BA
:100CD00084002B08BC002A08BB002908BA00280899
:100CE000B9000230BD00772CC60108244330C6008D
:100CF00008247130BC00FD30BB002930BA008630BA
:100D0000B9002B08C0002A08BF002908BE00280827
:100D1000BD00D325031CD72E0130C700C800F62321
:100D2000B90139081E20B90AF700C600082414309A
:100D30003902031D912E0130C7000230C800F6238E
:100D4000B90139083720B90AF700C6000824123063
:100D50003902031DA12E1530C7000130C800F6234B
:100D6000B90139084E20B90AF700C600082412302C
:100D70003902031DB12E8316860183128601831664
:100D8000861083128614BC01BB017030BA00853016
:100D9000B9002B08C0002A08BF002908BE00280897
:100DA000BD00D325031CD62ED222C32E372FE1300F
:100DB000BC00FA30BB004730BA008530B9002B08C0
:100DC000C0002A08BF002908BE002808BD00D3259E
:100DD000031C132F1530C7000130C800F623B901DA
:100DE00039086520B90AF700C60008241130390215
:100DF000031DF02E1530C7000230C800F623B901DC
:100E000039087B20B90AF700C60008240E303902E1
:100E1000031D002F83168601831286018316061098
:100E200083120614372F1530C7000130C800F6238F
:100E3000B90139088E20B90AF700C600082413301A
:100E40003902031D192F1530C7000230C800F623E0
:100E5000B90139084E20B90AF700C600082412303B
:100E60003902031D292F83168601831286012F085C
:100E7000BC002E08BB002D08BA002C08B9003708AA
:100E8000C0003608BF003508BE003408BD00D325B9
:100E9000031C722F3308BC003208BB003108BA00B3
:100EA0003008B9002F08C0002E08BF002D08BE0072
:100EB0002C08BD00D325031C722F1F151F195E2F90
:100EC0001E08FA0083161E088312B9001E08BA0015
:100ED00074217A08AF007908AE007808AD00770871
:080EE000AC00372F562E630011
:02400E00713F00
:00000001FF
;PIC16F877A
