:1000000000308A005C28000023308400831300083D
:10001000031918280130F800F701F70B0D28F80B29
:100020000C284A30F700F70B13281628800B0A28F3
:100030000034831685168312851A25280030A10006
:1000400083168701FF30831287008316851683127B
:10005000851E30280030A100831687018312870196
:10006000831605168312051A3C2883160910891079
:100070000911FF30831289000230A200F930A30079
:100080000420A20B3E280130A3000420831685150E
:10009000831285195B280230A200FA30A3000420E5
:1000A000A20B4D28831609108910091183128901AA
:1000B0002008A00AA0000034840183131F308305A8
:1000C00083161F149F141F159F1107309C00FF30CB
:1000D0008312A100FF308316850000308600FF30B8
:1000E00087008312A1008316880009108910091166
:1000F0008601831286018316860183128601831688
:1001000009108910091183128901831606108312C0
:100110000614A00120080E3C031C91281920A00AF7
:100120008A2883168601831286018316061183129C
:100130000615A00120080A3C031CA1281920A00ACA
:100140009A288316860183128601831686108312ED
:100150008614A0012008043C031CB1281920A00A21
:06016000AA287B286300C1
:02400E00713F00
:00000001FF
;PIC16F877A
