:1000000000308A004C2D00000A108A100A11820765
:100010000C3443346F346E34743472346F346C3453
:1000200065342034743465346D347034653472341E
:100030006134743475347234613400340A108A10B7
:100040000A1182070C34543465346D3470346534CD
:1000500072346134743475347234613420346534EC
:100060006C346534763461346434613400340A109D
:100070008A100A118207523465347334663472343C
:10008000693461346E3464346F34203473346934C9
:100090007334743465346D34613400340A108A105A
:1000A0000A11820741346734753461347234643420
:1000B0006534203475346D3420346D346F346D34D0
:1000C00065346E3474346F3400340A108A100A11A7
:1000D0008207543465346D3470346534723461345D
:1000E0007434753472346134203469346434653462
:1000F00061346C3400340A108A100A1182074534C6
:1001000073347434653469347234613420346C343B
:100110006934673461346434613400340A108A10FD
:100120000A1182074134713475346534633465349F
:100130006E3464346F3420346F3420347334693453
:100140007334743465346D34613400344730840062
:10015000831300080319BA280130F800F701F70BE0
:10016000AF28F80BAE284A30F700F70BB528B828AF
:10017000800BAC2800344E0EF039F7000F30080524
:100180007704880000000814C52808100034080807
:10019000F700080E0F39F800003483160810881095
:1001A0000811831288100F3083160805F038880074
:1001B00083120815000008140000C7207808CE003C
:1001C0000810000008140000C7207808CD000810AF
:1001D0000F3083160805880083124E0EF700F030AA
:1001E000F70577084D04F8007808CD00CD1BD3281B
:1001F0004B1C88104B1888140000081100000810D0
:100200004C0ECD000F30CD054D08CE00BB204C0864
:100210000F39CD00CE00BB2000342830BA000C309E
:10022000BB000130BC000630BD000810881008116A
:100230000F308316080588000810881008110F3049
:100240008312C700A6200130B9003908033C031C03
:1002500031290330CE00BB200530C700A620B90AE3
:1002600025290230CE00BB200530C700A620B901E9
:100270003908033C031C48293A30390784008313AA
:100280000008BE00CB013E08CC00CD20B90A3829B9
:100290008A110A128B2DB90DB90DB90DF830B905B7
:1002A0003830B90539084038BD00CB013D08CC00D5
:1002B000CD20BC013C08073C031C71293B08FA0017
:1002C0003A08BA0A0319BB0A840083137A18831701
:1002D0000008BD000130CB003D08CC00CD20BC0A99
:1002E0005A298A110A12902D8E30F7003A08F80028
:1002F0003908F900FA01F808031D88297908F8007F
:10030000F9010830F702F808031D8829F701902940
:100310000310F81B8F29F90DF80DF7038829F8133E
:10032000003446080319012ACE004A080319012A9D
:10033000CE070318A2297F30CE02031C012A03191D
:10034000012AA6298130CE070318012A4E08F7009A
:10035000F801F901FA014708D200D2174808D10084
:100360004908D0001830CE00CF01501CCF294D08CD
:10037000FA07031CC129F90A031DC129F80A031948
:10038000CF174C08F907031CC829F80A0319CF171F
:100390004B08C800C8174808F8070318CF17CF0D37
:1003A000F80CF90CFA0CD20CD10CD00C0310CE0BBB
:1003B000B4290130F7070318012AF81BE629D20DEA
:1003C000FA0DF90DF80DF7030319012AD21FF729C9
:1003D000FA0A031DF729F90A031DF729F80A031D74
:1003E000F729F80CF90CFA0CF70A0319012A470847
:1003F000CF004B08CF06CF1FFF29F817052AF813A7
:10040000052AF701F801F901FA0100348030831858
:10041000BE06C301C4013A08C2003E08C20639083C
:100420000319F62AC100F7003D080319FF2AC1028B
:1004300003199B2A031C592A3E08C700C7173F0807
:10044000C6004008C500C4010310C70CC60CC50C8B
:10045000C40CC10B232AC21F302A4314132B431090
:10046000411043163C3084008313282B4312C21BD7
:10047000432A411C4E2AC70CC60CC50CC40CF70AF3
:1004800003190E2B4E2AC71B512A0310C40DC50D8C
:10049000C60DC70DF70303190E2B432A4317BB2ABA
:1004A00043133A08C200C21F572AC717072BC713A6
:1004B000072B3D08C100F7003908C1023A08C70000
:1004C000C7173B08C6003C08C500C4010310C70C91
:1004D000C60CC50CC40CC10B652AC21F722AC314FA
:1004E000132BC3104110C316403084008313282BF4
:1004F000C312C21B852A411C902AC70CC60CC50C0E
:10050000C40CF70A03190E2B902AC71B932A031059
:10051000C40DC50DC60DC70DF70303190E2B852A93
:10052000C317BB2AC3133E08C200C21F992AC717AC
:10053000072BC713072B3E08C700C7173F08C60085
:100540004008C500C21FA82AC7134315132B431127
:10055000C40141103C3084008313282BC21BD12AD4
:100560003A08C200411CBB2AC70CC60CC50CC40CFF
:10057000F70A03190E2BC41FCC2AC50A031DCC2A67
:10058000C60A031DCC2AC70A031DCC2AC70CC60CF9
:10059000C50CF70A03190E2B431B502AC31B922AC2
:1005A000F02A8030C706C71FD92A132B3E08C20085
:1005B000E62A3A08C200C708031DE62AC608031D3A
:1005C000E62AC508031DE62AF701072BC71BF02AF8
:1005D0000310C40DC50DC60DC70DF70BE62A0E2B73
:1005E000C21FF42AC717072BC713072B3D08F700B4
:1005F0003E08C7003F08C6004008C500072B390861
:10060000F7003A08C7003B08C6003C08C500470889
:10061000F8004608F9004508FA00462BF701F801F2
:10062000F901FA01462BC401C509C609C709C40965
:10063000C40A031D212BC50A031D212BC60A031959
:10064000C70A43182F2AC318712A4319A72AD62A82
:100650000008C507031C322BC60A031D322BC70A2C
:100660000319411484030008C607031C3A2BC70A68
:100670000319411484030008801F803AC707031838
:100680004114431A362AC31A782AAE2A00341F1599
:100690001F19482B1E08FA0083161E088312B90082
:1006A0001E08BA0074217A08AF007908AE007808F5
:1006B000AD007708AC009030C9003E30C8007A30F9
:1006C000C7007D30C6002F08CD002E08CC002D08B5
:1006D000CB002C08CA0091217A08AB007908AA0047
:1006E0007808A9007708A80083142F08BC002E08FA
:1006F000BB002D08BA002C08B900C001BF01BE0123
:100700008030BD0006227A08B3007908B20078086C
:10071000B1007708B00083102F08BC002E08BB0082
:100720002D08BA002C08B900C001BF01BE018030FD
:10073000BD0006227A08B7007908B6007808B5002F
:100740007708B4000034480BA62BA92B4030C90011
:10075000AA2BC90101304702C90749088038CA00DD
:10076000CB014A08CC00CD2000344608073A0319D3
:10077000C32B0B3A0319C82B063A0319D02B023AA4
:100780000319D62BDB2B0130C700C800A323E12BB4
:10079000CB010130CC00CD200230C700A620E12BD8
:1007A0000130C7000230C800A323E12BCB01103079
:1007B000CC00CD20E12B0130CB004608CC00CD2071
:1007C000E12B0034F701F801F901FA01CE01CF0164
:1007D000D001D1014D084C044B044A040319202CCC
:1007E0002030D2000310C60DC70DC80DC90DCE0DA7
:1007F000CF0DD00DD10D4D085102031D092C4C0811
:100800005002031D092C4B084F02031D092C4A08F6
:100810004E02031C1A2C4A08CE024B08031C4B0F35
:10082000CF024C08031C4C0FD0024D08031C4D0F87
:10083000D1020314F70DF80DF90DFA0DD20BF22BBE
:100840004E308400831300340408BE003D08C0000D
:100850000319432C3C08C9003B08C8003A08C700EC
:100860003908C600CD01CC012030CB008230CA004F
:1008700091217A08BC007908BB007808BA00770893
:10088000B900C00B2A2C3C08C9003B08C8003A0834
:10089000C7003908C6004608B63CC600FA0147083A
:1008A000CA00C7170310C70CC80CC90CFA0CF90C06
:1008B000F80CF70CC60B522CCA1F692CF709F80963
:1008C000F909FA09F70A0319F80A0319F90A0319C9
:1008D000FA0A7A08BC007908BB007808BA007708E1
:1008E000B900BC1F802CBE03BE16B909BA09BB09EA
:1008F000BC09B90A0319BA0A0319BB0A0319BC0ACD
:100900003B30C5009A30C400CA30C300C2010A306F
:10091000C0003D080319BE0A3C08C9003B08C800D6
:100920003A08C7003908C6004508CD004408CC0085
:100930004308CB004208CA00E2230008B900840A39
:100940000008BA00840A0008BB00840A0008BC0042
:10095000FD308407F708031DC02C3D0A400203192F
:10096000C02C3E080319C22C0F3940020319BA2CBF
:100970000318F22CBE1BF22C3E1BC22C2030EE2C96
:100980002030BE05BE1ED02CBE123D08031DBE0386
:100990007708BE002D30C600B5233E08F700BE0123
:1009A0003D084002031DDE2C7708BE002E30C60035
:1009B000B5233E08F7002030BE0500303030BE1EA3
:1009C000EE2CBE123D08031DBE037708BE002D307D
:1009D000C600B5233E08F700BE013030F7077708A0
:1009E000C600B5234508C9004408C8004308C7002D
:1009F0004208C600CD01CC01CB010A30CA00E22377
:100A00007A08C5007908C4007808C3007708C200D6
:100A1000C00B8C2C8A110A12AE2D3A08C1003E0878
:100A2000C106C11F182D03110310BA1B03144B2D4F
:100A30003A08C1003D08C2003908C2020319262D38
:100A4000C11F4B2D0308013A83004B2D3E08C20005
:100A50003A08C2020319322DC11F4B2D0308013A77
:100A600083004B2D3F08C2003B08C20203193E2DF4
:100A7000C11F4B2D0308013A83004B2D4008C200D3
:100A80003C08C20203194A2DC11F4B2D0308013A2D
:100A900083004B2D03100034840183131F30830522
:100AA00083161F149F141F159F1107309C0083127B
:100AB000A0011C30A1001430A2001C30A300A4012E
:100AC000A501A601A701FF30B80083161F109F14CF
:100AD0001F159F151F1383121F179F1783169F172C
:100AE00083121F140030F8001F08C73978049F00D4
:100AF000FF3083168500FC308600FF3087008312AC
:100B0000B800083083168800091489140915860175
:100B1000831286010D29B901BB012030BA004B298F
:100B20004723B90139080420B90AF700C600B523E4
:100B300015303902031D922D0130C7000230C80064
:100B4000A323893084002B08BC002A08BB00290895
:100B5000BA002808B9000230BD00242CC601B52314
:100B60004330C600B523E130BC00FA30BB006F3023
:100B7000BA008530B9002B08C0002A08BF00290838
:100B8000BE002808BD000D25031C112E0130C70032
:100B9000C800A323B90139081E20B90AF700C6000E
:100BA000B52314303902031DCB2D0130C7000230AC
:100BB000C800A323B90139083720B90AF700C600D5
:100BC000B52312303902031DDB2D1530C70001306B
:100BD000C800A323B90139084E20B90AF700C6009E
:100BE000B52312303902031DEB2D831686018312C3
:100BF00086018316861083128614BC01BB01343033
:100C0000BA008530B9002B08C0002A08BF002908A7
:100C1000BE002808BD000D25031C102E4723FD2D06
:100C2000712EE130BC00FA30BB001F30BA008530B5
:100C3000B9002B08C0002A08BF002908BE002808F8
:100C4000BD000D25031C4D2E1530C7000130C80016
:100C5000A323B90139086520B90AF700C600B523F6
:100C600011303902031D2A2E1530C7000230C8008A
:100C7000A323B90139087B20B90AF700C600B523C0
:100C80000E303902031D3A2E831686018312860127
:100C90008316061083120614712E1530C70001301A
:100CA000C800A323B90139088E20B90AF700C6008D
:100CB000B52313303902031D532E1530C7000230FF
:100CC000C800A323B90139084E20B90AF700C600AD
:100CD000B52312303902031D632E83168601831259
:100CE00086012F08BC002E08BB002D08BA002C0876
:100CF000B9003708C0003608BF003508BE00340808
:100D0000BD000D25031CAC2E3308BC003208BB000F
:100D10003108BA003008B9002F08C0002E08BF0003
:100D20002D08BE002C08BD000D25031CAC2E1F1580
:100D30001F19982E1E08FA0083161E088312B90088
:100D40001E08BA0074217A08AF007908AE0078084E
:0C0D5000AD007708AC00712E902D630000
:02400E00713F00
:00000001FF
;PIC16F877A
