:020000040000FA
:04000000ACEF00F071
:08000800056ED8CF06F0E0CF31
:1000100007F00001E9CF0DF0EACF08F0E1CF09F0D9
:10002000E2CF0AF0D9CF0BF0DACF0CF0F3CF14F017
:10003000F4CF15F0FACF16F000C00FF001C010F0A9
:1000400002C011F003C012F004C013F0F2A82CEFAC
:1000500000F0F2B24FEF00F00FC000F010C001F05E
:1000600011C002F012C003F013C004F00E8E0DC0D8
:10007000E9FF08C0EAFF09C0E1FF0AC0E2FF0BC0C8
:10008000D9FF0CC0DAFF14C0F3FF15C0F4FF16C08F
:10009000FAFF055007C0E0FF06C0D8FF10001F5050
:1000A0009B0809E2FF0A03E11E503F0804E2010E2B
:1000B00018261F6A1E6AF2922CEF00F0EA6A210EDF
:1000C000E96EEF500EE0010E016E006A002EFED7C1
:1000D000012EFBD74A0E006E002EFED700D0EF2E69
:1000E000F2D7000C1D520DE0320E216EE7DF320E0A
:1000F0001E26000E1F221D0618501C5CD8A01D6A6B
:10010000F1D7000C020E196E1A6A1B6A1B501408F4
:1001100021E3200E1924400F956A8C6E95988C88E7
:10012000100E1A24400F956A8C6E959A8C8A040ED4
:10013000206EFA0E216EC2DF202EFBD7E80E1E269F
:10014000030E1F221A5203E10A0E1A6E19061A062E
:100150001B2ADCD710EF01F0F86AD09E0D8EEA6AF8
:10016000E96AC150C00B0F09C16E070EB46E500E84
:100170001E6EC30E1F6EF292C00EF212F288F19C38
:10018000FF0E926E936EE00E946E900E956E9680BA
:1001900096829684F19E946A8B6A956A8C6A186A34
:1001A00018C01CF0185008E0010A19E0030A2AE000
:1001B000010AD8B463D077D0946A8B6A94928B8208
:1001C00094988B8818501C5C01E26FD03C0E1D6E19
:1001D00089DF18501C5C01E268D0182A66D0946A46
:1001E0008B6A94908B8094988B8818501C5C01E2E9
:1001F0005CD0280E1D6E76DF18501C5C01E255D0D5
:10020000182A53D0946A8B6A94908B8094968B862C
:1002100018501C5C01E249D0956A020E8C6E72D7B0
:1002200094968B9694988B8818501C5C01E23DD074
:10023000196A1950050811E394988B78959C8C7C69
:10024000020E206EFA0E216E39DF202EFBD7F40E3F
:100250001E26010E1F22192AECD794988B88080EAF
:100260001D6E40DF18501C5C01E21FD0956A8C6A3D
:1002700018501C5C01E219D0182A17D0946A8B6AB6
:10028000956A8C6A94988B8894948B8418501C5C23
:1002900001E20BD0640E1D6E25DF18501C5C01E2DC
:0E02A00004D0182A02D0186A00D07AD70300C2
:020000040030CA
:0E0000000001191E008381000FC00FE00F40A9
:00000001FF
;PIC18F4520
