:1000000000308A00232E000058308400831300083B
:10001000031918280130F800F701F70B0D28F80B29
:100020000C284A30F700F70B13281628800B0A28F3
:1000300000345F0EF039F7000F30080577048800B0
:10004000000008142328081000340808F700080EE0
:100050000F39F80000348316081088100811831235
:1000600088100F3083160805F038880083120815B1
:1000700000000814000025207808DF0008100000A8
:100080000814000025207808DE0008100F308316C1
:100090000805880083125F0EF700F030F705770837
:1000A0005E04F8007808DE00DE1B31285C1C881036
:1000B0005C18881400000811000008105D0EDE00B6
:1000C0000F30DE055E08DF0019205D080F39DE0005
:1000D000DF00192000342830CB000C30CC00013078
:1000E000CD000630CE000810881008110F3083169E
:1000F000080588000810881008110F308312D800F6
:1001000004200130CA004A08033C031C8F28033036
:10011000DF0019200530D8000420CA0A83280230E5
:10012000DF0019200530D8000420CA014A08033C2A
:10013000031CA6284B304A07840083130008CF0015
:10014000DC014F08DD002B20CA0A96288A110A120A
:10015000752ECA0DCA0DCA0DF830CA053830CA0549
:100160004A084038CE00DC014E08DD002B20CD01CE
:100170004D08073C031CCF284C08FA004B08CB0A5B
:100180000319CC0A840083137A1883170008CE0061
:100190000130DC004E08DD002B20CD0AB8288A1182
:1001A0000A127A2E8E30F7004B08F8004A08F90040
:1001B000FA01F808031DE6287908F800F90108306B
:1001C000F702F808031DE628F701EE280310F81BD4
:1001D000ED28F90DF80DF703E628F81300344E0862
:1001E0000319B429DA0052080319B429DA02031CEE
:1001F000FE287F30DA070318B42904298130DA0297
:10020000031CB4290319B4295A08F700F801F901AD
:10021000FA01D9014F08D800D8175008D700510863
:10022000D6001930DA005508D60203182729013004
:10023000D70203182729D80203182729D90203183F
:100240002729D90AD80AD70A5508D60759295408A0
:10025000D702031842290130D80203184229D902D3
:1002600003184229D90AD80A5408D7075508D607CF
:10027000031C5929D70A031D5929D80A031D5929D6
:10028000D90A592953088038D8020318582901304F
:10029000D90203185829D90A53088038D8075408B6
:1002A000D707031C3629D80A031D3629D90A36294F
:1002B0007A14DA0B5C2967290310D60DD70DD80DF7
:1002C000D90D0310FA0DF90DF80DDB0D13295B1C88
:1002D0006F290310F80CF90CFA0CDB0C7229F703E8
:1002E0000319B429DB1B9B290310D60DD70DD80D9C
:1002F000D90D5508D602031887290130D7020318F3
:100300008729D80203188729D902031CAA2954086F
:10031000D702031892290130D80203189229D90272
:10032000031CAA2953088038D80203189B290130DE
:10033000D902031CAA29FA0A031DAA29F90A031DD6
:10034000AA29F80A031DAA29F70A0319B429F80CE7
:10035000F90CFA0C4F08DA005308DA06DA1FB22952
:10036000F817B829F813B829F701F801F901FA01CB
:10037000003457080319292ADF005B080319292ACA
:10038000DF070318CA297F30DF02031C292A03195B
:10039000292ACE298130DF070318292A5F08F700B0
:1003A000F801F901FA015808E300E3175908E200DF
:1003B0005A08E1001830DF00E001611CF7295E08EF
:1003C000FA07031CE929F90A031DE929F80A0319A8
:1003D000E0175D08F907031CF029F80A0319E01774
:1003E0005C08D900D9175908F8070318E017E00D81
:1003F000F80CF90CFA0CE30CE20CE10C0310DF0B27
:10040000DC290130F7070318292AF81B0E2AE30D0F
:10041000FA0DF90DF80DF7030319292AE31F1F2A16
:10042000FA0A031D1F2AF90A031D1F2AF80A031DD1
:100430001F2AF80CF90CFA0CF70A0319292A580894
:10044000E0005C08E006E01F272AF8172D2AF813C1
:100450002D2AF701F801F901FA01003480308318E0
:10046000CF06D401D5014B08D3004F08D3064A0864
:1004700003191E2BD200F7004E080319272BD202B6
:100480000319C32A031C812A4F08D800D817500823
:10049000D7005108D600D5010310D80CD70CD60CC4
:1004A000D50CD20B4B2AD31F582A54143B2B541073
:1004B000521054164D3084008313502B5412D31B0A
:1004C0006B2A521C762AD80CD70CD60CD50CF70AFE
:1004D0000319362B762AD81B792A0310D50DD60D91
:1004E000D70DD80DF7030319362B6B2A5417E32ABF
:1004F00054134B08D300D31F7F2AD8172F2BD813A0
:100500002F2B4E08D200F7004A08D2024B08D80021
:10051000D8174C08D7004D08D600D5010310D80CC9
:10052000D70CD60CD50CD20B8D2AD31F9A2AD414F3
:100530003B2BD4105210D416513084008313502B0F
:10054000D412D31BAD2A521CB82AD80CD70CD60C07
:10055000D50CF70A0319362BB82AD81BBB2A03106F
:10056000D50DD60DD70DD80DF7030319362BAD2AAF
:10057000D417E32AD4134F08D300D31FC12AD817A6
:100580002F2BD8132F2B4F08D800D8175008D7007F
:100590005108D600D31FD02AD81354153B2B541121
:1005A000D50152104D3084008313502BD31BF92AF0
:1005B0004B08D300521CE32AD80CD70CD60CD50C10
:1005C000F70A0319362BD51FF42AD60A031DF42A7D
:1005D000D70A031DF42AD80A031DF42AD80CD70C15
:1005E000D60CF70A0319362B541B782AD41BBA2AC7
:1005F000182B8030D806D81F012B3B2B4F08D30077
:100600000E2B4B08D300D808031D0E2BD708031D53
:100610000E2BD608031D0E2BF7012F2BD81B182BE2
:100620000310D50DD60DD70DD80DF70B0E2B362B8D
:10063000D31F1C2BD8172F2BD8132F2B4E08F700A6
:100640004F08D8005008D7005108D6002F2B4A0871
:10065000F7004B08D8004C08D7004D08D6005808C2
:10066000F8005708F9005608FA006E2BF701F80158
:10067000F901FA016E2BD501D609D709D809D50998
:10068000D50A031D492BD60A031D492BD70A031986
:10069000D80A5418572AD418992A5419CF2AFE2A4E
:1006A0000008D607031C5A2BD70A031D5A2BD80A59
:1006B0000319521484030008D707031C622BD80ABD
:1006C0000319521484030008801F803AD8070318C6
:1006D0005214541A5E2AD41AA02AD62A00341F159E
:1006E0001F19702B1E08FA0083161E088312CA00F9
:1006F0001E08CB00D2207A08BF007908BE00780817
:10070000BD007708BC003F08D1003E08D0003D087E
:10071000CF003C08CE00D501C030D4007F30D300DC
:100720008830D200EF20DA01D9012030D8008130A2
:10073000D7007A08DE007908DD007808DC00770849
:10074000DB00B9217A08AB007908AA007808A90073
:100750007708A8008314CD01CC012030CB00813074
:10076000CA002B08D1002A08D0002908CF00280889
:10077000CE002E227A08B7007908B6007808B500B6
:100780007708B400DA014030D9001C30D8008C3032
:10079000D7002B08DE002A08DD002908DC00280825
:1007A000DB00B9217708CA007808CB007908CC00B3
:1007B0007A08CD00D1007908D0007808CF007708FA
:1007C000CE003708D5003608D4003508D3003408E9
:1007D000D200EF207A08BB007908BA007808B90087
:1007E0007708B80083103B08CD003A08CC003908E0
:1007F000CB003808CA00D1014030D0001C30CF00F7
:100800008C30CE002E22D101D0012030CF0081309B
:10081000CE007A08D5007908D4007808D30077088C
:10082000D200EF207708CA007808CB007908CC0006
:100830007A08CD00DA007908D9007808D80077085E
:10084000D700DE01DD017A30DC008830DB00B92121
:100850007A08B3007908B2007808B1007708B000D0
:100860003308DA003208D9003108D8003008D70040
:100870002B08DE002A08DD002908DC002808DB0040
:10088000B9217A08AF007908AE007808AD00770882
:10089000AC0083143F08CD003E08CC003D08CB00DF
:1008A0003C08CA00D101D0012030CF008130CE00F9
:1008B0002E227A08C3007908C2007808C1007708A0
:1008C000C00083103F08CD003E08CC003D08CB009F
:1008D0003C08CA00D101D0012030CF008130CE00C9
:1008E0002E227A08C7007908C6007808C500770864
:1008F000C4008A110A127B2E590B7F2C822C4030A7
:10090000DA00832CDA0101305802DA075A088038FD
:10091000DB00DC015B08DD002B2000345708073AC0
:1009200003199C2C0B3A0319A12C063A0319A92C84
:10093000023A0319AF2CB42C0130D800D9007C2422
:10094000BA2CDC010130DD002B200230D80004205D
:10095000BA2C0130D8000230D9007C24BA2CDC013A
:100960001030DD002B20BA2C0130DC005708DD00F0
:100970002B20BA2C0034F701F801F901FA01DF014C
:10098000E001E101E2015E085D045C045B0403191F
:10099000F92C2030E3000310D70DD80DD90DDA0D56
:1009A000DF0DE00DE10DE20D5E086202031DE22C99
:1009B0005D086102031DE22C5C086002031DE22C4D
:1009C0005B085F02031CF32C5B08DF025C08031C5E
:1009D0005C0FE0025D08031C5D0FE1025E08031C72
:1009E0005E0FE2020314F70DF80DF90DFA0DE30B9B
:1009F000CB2C5F308400831300340408CF004E08F2
:100A0000D10003191C2D4D08DA004C08D9004B0801
:100A1000D8004A08D700DE01DD012030DC0082303A
:100A2000DB00B9217A08CD007908CC007808CB002A
:100A30007708CA00D10B032D4D08DA004C08D90005
:100A40004B08D8004A08D7005708B63CD700FA012F
:100A50005808DB00D8170310D80CD90CDA0CFA0CA4
:100A6000F90CF80CF70CD70B2B2DDB1F422DF709D7
:100A7000F809F909FA09F70A0319F80A0319F90A32
:100A80000319FA0A7A08CD007908CC007808CB005F
:100A90007708CA00CD1F592DCF03CF16CA09CB093D
:100AA000CC09CD09CA0A0319CB0A0319CC0A0319C8
:100AB000CD0A3B30D6009A30D500CA30D400D301DD
:100AC0000A30D1004E080319CF0A4D08DA004C084D
:100AD000D9004B08D8004A08D7005608DE00550850
:100AE000DD005408DC005308DB00BB240008CA000A
:100AF000840A0008CB00840A0008CC00840A00089D
:100B0000CD00FD308407F708031D992D4E0A5102D0
:100B10000319992D4F0803199B2D0F395102031901
:100B2000932D0318CB2DCF1BCB2D4F1B9B2D20308E
:100B3000C72D2030CF05CF1EA92DCF124E08031D83
:100B4000CF037708CF002D30D7008E244F08F70051
:100B5000CF014E085102031DB72D7708CF002E306C
:100B6000D7008E244F08F7002030CF0500303030FA
:100B7000CF1EC72DCF124E08031DCF037708CF001D
:100B80002D30D7008E244F08F700CF013030F70703
:100B90007708D7008E245608DA005508D900540883
:100BA000D8005308D700DE01DD01DC010A30DB008C
:100BB000BB247A08D6007908D5007808D4007708D5
:100BC000D300D10B652D00344B08D2004F08D2065C
:100BD000D21FEF2D03110310CB1B0314222E4B0841
:100BE000D2004E08D3004A08D3020319FD2DD21FAC
:100BF000222E0308013A8300222E4F08D3004B080F
:100C0000D3020319092ED21F222E0308013A8300B2
:100C1000222E5008D3004C08D3020319152ED21FE0
:100C2000222E0308013A8300222E5108D3004D08DA
:100C3000D3020319212ED21F222E0308013A83006A
:100C4000222E03100034840183131F308305831682
:100C50001F149F141F159F1107309C008312A001C1
:100C6000A1010E30A2001B30A3001130A4000A30F5
:100C7000A5001B30A600A701FF30C80083161F1077
:100C80009F141F159F151F1383121F179F1783167D
:100C90009F1783121F140030F8001F08C73978040B
:100CA0009F00FF308316850000308600FF308700EC
:100CB0008312C800083083168800091489140915A6
:100CC0008312C9014908063C031C702E8316861343
:100CD0008030831286069630D8000420C90A622E1E
:100CE00083168613831286136B28CA01CC01203029
:100CF000CB00A9286F2B0C30D7008E2489308400BC
:100D00002B08CD002A08CC002908CB002808CA00EF
:100D10000230CE00FD242030D7008E245630D7007C
:100D20008E240130D8000230D9007C2400308400A9
:100D30003B08CD003A08CC003908CB003808CA007F
:100D4000CE01FD242030D7008E24D7018E2415300B
:100D5000D8000130D9007C24893084003308CD00CC
:100D60003208CC003108CB003008CA000230CE0077
:100D7000FD242030D7008E246D30D7008E244130E2
:100D8000D7008E241530D8000230D9007C24893059
:100D900084002F08CD002E08CC002D08CB002C0895
:100DA000CA000230CE00FD242030D7008E246D30E2
:100DB000D7008E245730D7008E24CD01CC01CB0133
:100DC0008030CA002B08D1002A08D0002908CF00A3
:100DD0002808CE00E425031CF12E83168613831207
:100DE00086172B08CD002A08CC002908CB0028083C
:100DF000CA00D101D001CF018030CE00E425031C10
:100E0000052F83168613831286133F08CD003E08F4
:100E1000CC003D08CB003C08CA004708D10046087A
:100E2000D0004508CF004408CE00E425031C402F25
:100E30004308CD004208CC004108CB004008CA005E
:100E40003F08D1003E08D0003D08CF003C08CE004E
:100E5000E425031C402F1F151F192C2F1E08FA0014
:100E600083161E088312CA001E08CB00D2207A08FF
:100E7000BF007908BE007808BD007708BC00052FC8
:040E80007A2E630063
:02400E00713F00
:00000001FF
;PIC16F877A
